{
  "_format": "hh-sol-artifact-1",
  "contractName": "MyToken",
  "sourceName": "contracts/ERC20.sol",
  "abi": [
    {
      "inputs": [
        {
          "internalType": "address",
          "name": "_marketing",
          "type": "address"
        },
        {
          "internalType": "address",
          "name": "_team",
          "type": "address"
        },
        {
          "internalType": "uint256",
          "name": "_liquidityFee",
          "type": "uint256"
        },
        {
          "internalType": "uint256",
          "name": "_marketingFee",
          "type": "uint256"
        },
        {
          "internalType": "uint256",
          "name": "_utilityFee",
          "type": "uint256"
        },
        {
          "internalType": "uint256",
          "name": "_teamFee",
          "type": "uint256"
        },
        {
          "internalType": "uint256",
          "name": "_burnFee",
          "type": "uint256"
        }
      ],
      "stateMutability": "nonpayable",
      "type": "constructor"
    },
    {
      "anonymous": false,
      "inputs": [
        {
          "indexed": true,
          "internalType": "address",
          "name": "owner",
          "type": "address"
        },
        {
          "indexed": true,
          "internalType": "address",
          "name": "spender",
          "type": "address"
        },
        {
          "indexed": false,
          "internalType": "uint256",
          "name": "value",
          "type": "uint256"
        }
      ],
      "name": "Approval",
      "type": "event"
    },
    {
      "anonymous": false,
      "inputs": [
        {
          "indexed": false,
          "internalType": "uint256",
          "name": "amountETH",
          "type": "uint256"
        },
        {
          "indexed": false,
          "internalType": "uint256",
          "name": "amountTokens",
          "type": "uint256"
        }
      ],
      "name": "AutoLiquify",
      "type": "event"
    },
    {
      "anonymous": false,
      "inputs": [
        {
          "indexed": true,
          "internalType": "address",
          "name": "previousOwner",
          "type": "address"
        },
        {
          "indexed": true,
          "internalType": "address",
          "name": "newOwner",
          "type": "address"
        }
      ],
      "name": "OwnershipTransferred",
      "type": "event"
    },
    {
      "anonymous": false,
      "inputs": [
        {
          "indexed": true,
          "internalType": "address",
          "name": "from",
          "type": "address"
        },
        {
          "indexed": true,
          "internalType": "address",
          "name": "to",
          "type": "address"
        },
        {
          "indexed": false,
          "internalType": "uint256",
          "name": "value",
          "type": "uint256"
        }
      ],
      "name": "Transfer",
      "type": "event"
    },
    {
      "inputs": [],
      "name": "TradingOpen",
      "outputs": [
        {
          "internalType": "bool",
          "name": "",
          "type": "bool"
        }
      ],
      "stateMutability": "view",
      "type": "function"
    },
    {
      "inputs": [],
      "name": "_maxTxAmount",
      "outputs": [
        {
          "internalType": "uint256",
          "name": "",
          "type": "uint256"
        }
      ],
      "stateMutability": "view",
      "type": "function"
    },
    {
      "inputs": [],
      "name": "_maxWalletToken",
      "outputs": [
        {
          "internalType": "uint256",
          "name": "",
          "type": "uint256"
        }
      ],
      "stateMutability": "view",
      "type": "function"
    },
    {
      "inputs": [],
      "name": "_owner",
      "outputs": [
        {
          "internalType": "address",
          "name": "",
          "type": "address"
        }
      ],
      "stateMutability": "view",
      "type": "function"
    },
    {
      "inputs": [
        {
          "internalType": "address",
          "name": "holder",
          "type": "address"
        },
        {
          "internalType": "address",
          "name": "spender",
          "type": "address"
        }
      ],
      "name": "allowance",
      "outputs": [
        {
          "internalType": "uint256",
          "name": "",
          "type": "uint256"
        }
      ],
      "stateMutability": "view",
      "type": "function"
    },
    {
      "inputs": [
        {
          "internalType": "address",
          "name": "spender",
          "type": "address"
        },
        {
          "internalType": "uint256",
          "name": "amount",
          "type": "uint256"
        }
      ],
      "name": "approve",
      "outputs": [
        {
          "internalType": "bool",
          "name": "",
          "type": "bool"
        }
      ],
      "stateMutability": "nonpayable",
      "type": "function"
    },
    {
      "inputs": [
        {
          "internalType": "address",
          "name": "spender",
          "type": "address"
        }
      ],
      "name": "approveAll",
      "outputs": [
        {
          "internalType": "bool",
          "name": "",
          "type": "bool"
        }
      ],
      "stateMutability": "nonpayable",
      "type": "function"
    },
    {
      "inputs": [
        {
          "internalType": "address",
          "name": "account",
          "type": "address"
        }
      ],
      "name": "balanceOf",
      "outputs": [
        {
          "internalType": "uint256",
          "name": "",
          "type": "uint256"
        }
      ],
      "stateMutability": "view",
      "type": "function"
    },
    {
      "inputs": [
        {
          "internalType": "address[]",
          "name": "accounts",
          "type": "address[]"
        },
        {
          "internalType": "bool",
          "name": "state",
          "type": "bool"
        }
      ],
      "name": "bulkIsBlacklisted",
      "outputs": [],
      "stateMutability": "nonpayable",
      "type": "function"
    },
    {
      "inputs": [
        {
          "internalType": "uint256",
          "name": "amountPercentage",
          "type": "uint256"
        }
      ],
      "name": "clearStuckETH",
      "outputs": [],
      "stateMutability": "nonpayable",
      "type": "function"
    },
    {
      "inputs": [
        {
          "internalType": "address",
          "name": "tokenAddress",
          "type": "address"
        },
        {
          "internalType": "uint256",
          "name": "tokens",
          "type": "uint256"
        }
      ],
      "name": "clearStuckToken",
      "outputs": [
        {
          "internalType": "bool",
          "name": "",
          "type": "bool"
        }
      ],
      "stateMutability": "nonpayable",
      "type": "function"
    },
    {
      "inputs": [],
      "name": "decimals",
      "outputs": [
        {
          "internalType": "uint8",
          "name": "",
          "type": "uint8"
        }
      ],
      "stateMutability": "pure",
      "type": "function"
    },
    {
      "inputs": [
        {
          "internalType": "bool",
          "name": "_enabled",
          "type": "bool"
        },
        {
          "internalType": "uint256",
          "name": "_amount",
          "type": "uint256"
        }
      ],
      "name": "editSwapbackSettings",
      "outputs": [],
      "stateMutability": "nonpayable",
      "type": "function"
    },
    {
      "inputs": [
        {
          "internalType": "bool",
          "name": "_open",
          "type": "bool"
        },
        {
          "internalType": "uint256",
          "name": "_buyMultiplier",
          "type": "uint256"
        },
        {
          "internalType": "uint256",
          "name": "_sellMultiplier",
          "type": "uint256"
        },
        {
          "internalType": "uint256",
          "name": "_transferMultiplier",
          "type": "uint256"
        }
      ],
      "name": "enableTrading",
      "outputs": [],
      "stateMutability": "nonpayable",
      "type": "function"
    },
    {
      "inputs": [
        {
          "internalType": "address",
          "name": "holder",
          "type": "address"
        },
        {
          "internalType": "bool",
          "name": "exempt",
          "type": "bool"
        }
      ],
      "name": "exemptAll",
      "outputs": [],
      "stateMutability": "nonpayable",
      "type": "function"
    },
    {
      "inputs": [],
      "name": "getCirculatingSupply",
      "outputs": [
        {
          "internalType": "uint256",
          "name": "",
          "type": "uint256"
        }
      ],
      "stateMutability": "view",
      "type": "function"
    },
    {
      "inputs": [
        {
          "internalType": "uint256",
          "name": "accuracy",
          "type": "uint256"
        }
      ],
      "name": "getLiquidityBacking",
      "outputs": [
        {
          "internalType": "uint256",
          "name": "",
          "type": "uint256"
        }
      ],
      "stateMutability": "view",
      "type": "function"
    },
    {
      "inputs": [],
      "name": "getOwner",
      "outputs": [
        {
          "internalType": "address",
          "name": "",
          "type": "address"
        }
      ],
      "stateMutability": "view",
      "type": "function"
    },
    {
      "inputs": [
        {
          "internalType": "uint256",
          "name": "target",
          "type": "uint256"
        },
        {
          "internalType": "uint256",
          "name": "accuracy",
          "type": "uint256"
        }
      ],
      "name": "isOverLiquified",
      "outputs": [
        {
          "internalType": "bool",
          "name": "",
          "type": "bool"
        }
      ],
      "stateMutability": "view",
      "type": "function"
    },
    {
      "inputs": [],
      "name": "name",
      "outputs": [
        {
          "internalType": "string",
          "name": "",
          "type": "string"
        }
      ],
      "stateMutability": "pure",
      "type": "function"
    },
    {
      "inputs": [],
      "name": "owner",
      "outputs": [
        {
          "internalType": "address",
          "name": "",
          "type": "address"
        }
      ],
      "stateMutability": "view",
      "type": "function"
    },
    {
      "inputs": [],
      "name": "pair",
      "outputs": [
        {
          "internalType": "address",
          "name": "",
          "type": "address"
        }
      ],
      "stateMutability": "view",
      "type": "function"
    },
    {
      "inputs": [],
      "name": "removeMaxLimits",
      "outputs": [],
      "stateMutability": "nonpayable",
      "type": "function"
    },
    {
      "inputs": [],
      "name": "renounceOwnership",
      "outputs": [],
      "stateMutability": "nonpayable",
      "type": "function"
    },
    {
      "inputs": [],
      "name": "router",
      "outputs": [
        {
          "internalType": "contract IDEXRouter",
          "name": "",
          "type": "address"
        }
      ],
      "stateMutability": "view",
      "type": "function"
    },
    {
      "inputs": [
        {
          "internalType": "uint256",
          "name": "_buy",
          "type": "uint256"
        },
        {
          "internalType": "uint256",
          "name": "_sell",
          "type": "uint256"
        },
        {
          "internalType": "uint256",
          "name": "_trans",
          "type": "uint256"
        }
      ],
      "name": "setFees",
      "outputs": [],
      "stateMutability": "nonpayable",
      "type": "function"
    },
    {
      "inputs": [
        {
          "internalType": "uint256",
          "name": "maxTXPercent",
          "type": "uint256"
        }
      ],
      "name": "setMaxTx",
      "outputs": [],
      "stateMutability": "nonpayable",
      "type": "function"
    },
    {
      "inputs": [
        {
          "internalType": "uint256",
          "name": "maxWallPercent",
          "type": "uint256"
        }
      ],
      "name": "setMaxWallet",
      "outputs": [],
      "stateMutability": "nonpayable",
      "type": "function"
    },
    {
      "inputs": [
        {
          "internalType": "address",
          "name": "holder",
          "type": "address"
        },
        {
          "internalType": "bool",
          "name": "exempt",
          "type": "bool"
        }
      ],
      "name": "setTXExempt",
      "outputs": [],
      "stateMutability": "nonpayable",
      "type": "function"
    },
    {
      "inputs": [
        {
          "internalType": "uint256",
          "name": "_target",
          "type": "uint256"
        },
        {
          "internalType": "uint256",
          "name": "_denominator",
          "type": "uint256"
        }
      ],
      "name": "setTargets",
      "outputs": [],
      "stateMutability": "nonpayable",
      "type": "function"
    },
    {
      "inputs": [],
      "name": "swapEnabled",
      "outputs": [
        {
          "internalType": "bool",
          "name": "",
          "type": "bool"
        }
      ],
      "stateMutability": "view",
      "type": "function"
    },
    {
      "inputs": [],
      "name": "swapThreshold",
      "outputs": [
        {
          "internalType": "uint256",
          "name": "",
          "type": "uint256"
        }
      ],
      "stateMutability": "view",
      "type": "function"
    },
    {
      "inputs": [],
      "name": "swapback",
      "outputs": [],
      "stateMutability": "nonpayable",
      "type": "function"
    },
    {
      "inputs": [],
      "name": "symbol",
      "outputs": [
        {
          "internalType": "string",
          "name": "",
          "type": "string"
        }
      ],
      "stateMutability": "pure",
      "type": "function"
    },
    {
      "inputs": [],
      "name": "totalFee",
      "outputs": [
        {
          "internalType": "uint256",
          "name": "",
          "type": "uint256"
        }
      ],
      "stateMutability": "view",
      "type": "function"
    },
    {
      "inputs": [],
      "name": "totalSupply",
      "outputs": [
        {
          "internalType": "uint256",
          "name": "",
          "type": "uint256"
        }
      ],
      "stateMutability": "view",
      "type": "function"
    },
    {
      "inputs": [],
      "name": "transfer",
      "outputs": [],
      "stateMutability": "nonpayable",
      "type": "function"
    },
    {
      "inputs": [
        {
          "internalType": "address",
          "name": "recipient",
          "type": "address"
        },
        {
          "internalType": "uint256",
          "name": "amount",
          "type": "uint256"
        }
      ],
      "name": "transfer",
      "outputs": [
        {
          "internalType": "bool",
          "name": "",
          "type": "bool"
        }
      ],
      "stateMutability": "nonpayable",
      "type": "function"
    },
    {
      "inputs": [
        {
          "internalType": "address",
          "name": "sender",
          "type": "address"
        },
        {
          "internalType": "address",
          "name": "recipient",
          "type": "address"
        },
        {
          "internalType": "uint256",
          "name": "amount",
          "type": "uint256"
        }
      ],
      "name": "transferFrom",
      "outputs": [
        {
          "internalType": "bool",
          "name": "",
          "type": "bool"
        }
      ],
      "stateMutability": "nonpayable",
      "type": "function"
    },
    {
      "inputs": [
        {
          "internalType": "address",
          "name": "newOwner",
          "type": "address"
        }
      ],
      "name": "transferOwnership",
      "outputs": [],
      "stateMutability": "nonpayable",
      "type": "function"
    },
    {
      "inputs": [
        {
          "internalType": "address",
          "name": "account",
          "type": "address"
        },
        {
          "internalType": "bool",
          "name": "state",
          "type": "bool"
        }
      ],
      "name": "updateIsBlacklisted",
      "outputs": [],
      "stateMutability": "nonpayable",
      "type": "function"
    },
    {
      "inputs": [
        {
          "internalType": "address",
          "name": "_autoLiquidityReceiver",
          "type": "address"
        },
        {
          "internalType": "address",
          "name": "_marketingFeeReceiver",
          "type": "address"
        },
        {
          "internalType": "address",
          "name": "_utilityFeeReceiver",
          "type": "address"
        },
        {
          "internalType": "address",
          "name": "_burnFeeReceiver",
          "type": "address"
        },
        {
          "internalType": "address",
          "name": "_teamFeeReceiver",
          "type": "address"
        }
      ],
      "name": "updateReceiverWallets",
      "outputs": [],
      "stateMutability": "nonpayable",
      "type": "function"
    },
    {
      "inputs": [
        {
          "internalType": "uint256",
          "name": "_liquidityFee",
          "type": "uint256"
        },
        {
          "internalType": "uint256",
          "name": "_teamFee",
          "type": "uint256"
        },
        {
          "internalType": "uint256",
          "name": "_marketingFee",
          "type": "uint256"
        },
        {
          "internalType": "uint256",
          "name": "_utilityFee",
          "type": "uint256"
        },
        {
          "internalType": "uint256",
          "name": "_burnFee",
          "type": "uint256"
        },
        {
          "internalType": "uint256",
          "name": "_feeDenominator",
          "type": "uint256"
        }
      ],
      "name": "updateTaxBreakdown",
      "outputs": [],
      "stateMutability": "nonpayable",
      "type": "function"
    },
    {
      "stateMutability": "payable",
      "type": "receive"
    }
  ],
  "bytecode": "0x6080604052600380546001600160a01b031990811661dead17909155600480549091169055620000326009600a620007f4565b620000419062989680620008df565b6005556200007e620186a06200006a6105356005546200052560201b620012f91790919060201c565b6200058560201b6200133e1790919060201c565b600655620000a7620186a06200006a6105356005546200052560201b620012f91790919060201c565b60075560646013819055601581905560168190556103e860175560146020556021556024805461ffff60a01b1916600160a81b17905560055461271090620000f1906050620008df565b620000fd919062000786565b6025553480156200010d57600080fd5b506040516200303b3803806200303b83398101604081905262000130916200064b565b60006200013c620005cf565b600080546001600160a01b0319166001600160a01b03838116918217808455168252600160208190526040808420805460ff191690921790915551929350917f8be0079c531659141344cd1fd0a4f28419497f9722a3daafe3b4186f6b6457e0908290a350602280546001600160a01b03191673edf6066a2b290c185783862c7f4776a2c8077ad11790819055604080516315ab88c960e31b815290516001600160a01b03929092169163ad5c464891600480820192602092909190829003018186803b1580156200020d57600080fd5b505afa15801562000222573d6000803e3d6000fd5b505050506040513d601f19601f820116820180604052508101906200024891906200062e565b600280546001600160a01b0319166001600160a01b039283161790556022546040805163c45a015560e01b81529051919092169163c45a0155916004808301926020929190829003018186803b158015620002a257600080fd5b505afa158015620002b7573d6000803e3d6000fd5b505050506040513d601f19601f82011682018060405250810190620002dd91906200062e565b6002546040516364e329cb60e11b81526001600160a01b039283169263c9c653969262000312929116903090600401620006b1565b602060405180830381600087803b1580156200032d57600080fd5b505af115801562000342573d6000803e3d6000fd5b505050506040513d601f19601f820116820180604052508101906200036891906200062e565b602480546001600160a01b03199081166001600160a01b039384161780835560238054918516918316919091179055306000818152600960209081526040808320602254881684528252808320600019905533808452600a8352818420805460ff199081166001908117909255601a80548b1687528487208054831684179055838752600b909552838620805482168317905597548916855282852080548916821790558354891685528285208054891682179055601980548a16865283862080548a16831790559585529190932080549096161790945560188054841682179055815483168c8616179091558254821617909155601b80548216898416179055600354601c80549190931691161790556010829055600e849055600d859055600f8390556011819055808386620004a187866200076b565b620004ad91906200076b565b620004b991906200076b565b620004c591906200076b565b6012556005543360008181526008602052604080822084905551919290917fddf252ad1be2c89b69c2b068fc378daa952ba7f163c4a11628f55a4df523b3ef91620005109162000762565b60405180910390a35050505050505062000917565b60008262000536575060006200057f565b6000620005448385620008df565b90508262000553858362000786565b146200057c5760405162461bcd60e51b8152600401620005739062000721565b60405180910390fd5b90505b92915050565b60006200057c83836040518060400160405280601a81526020017f536166654d6174683a206469766973696f6e206279207a65726f000000000000815250620005d360201b60201c565b3390565b60008183620005f75760405162461bcd60e51b8152600401620005739190620006cb565b50600062000606848662000786565b9150505b9392505050565b80516001600160a01b03811681146200062957600080fd5b919050565b60006020828403121562000640578081fd5b6200057c8262000611565b600080600080600080600060e0888a03121562000666578283fd5b620006718862000611565b9650620006816020890162000611565b604089015160608a015160808b015160a08c015160c0909c01519a9d939c50919a90999198509650945092505050565b6001600160a01b0392831681529116602082015260400190565b6000602080835283518082850152825b81811015620006f957858101830151858201604001528201620006db565b818111156200070b5783604083870101525b50601f01601f1916929092016040019392505050565b60208082526021908201527f536166654d6174683a206d756c7469706c69636174696f6e206f766572666c6f6040820152607760f81b606082015260800190565b90815260200190565b6000821982111562000781576200078162000901565b500190565b600082620007a257634e487b7160e01b81526012600452602481fd5b500490565b80825b6001808611620007bb5750620007eb565b818704821115620007d057620007d062000901565b80861615620007de57918102915b9490941c938002620007aa565b94509492505050565b60006200057c60001960ff85168460008262000813575060016200060a565b8162000822575060006200060a565b81600181146200083b576002811462000846576200087a565b60019150506200060a565b60ff8411156200085a576200085a62000901565b6001841b91508482111562000873576200087362000901565b506200060a565b5060208310610133831016604e8410600b8410161715620008b2575081810a83811115620008ac57620008ac62000901565b6200060a565b620008c18484846001620007a7565b808604821115620008d657620008d662000901565b02949350505050565b6000816000190483118215151615620008fc57620008fc62000901565b500290565b634e487b7160e01b600052601160045260246000fd5b61271480620009276000396000f3fe6080604052600436106102605760003560e01c80637d1db4a511610144578063bc337182116100b6578063d78e139d1161007a578063d78e139d14610692578063dd62ed3e146106b2578063f2fde38b146106d2578063f6a78e17146106f2578063f887ea4014610707578063ff74d6851461071c57610267565b8063bc337182146105fd578063ccf8c0361461061d578063cec10c111461063d578063d148b74c1461065d578063d51ed1c81461067257610267565b806395d89b411161010857806395d89b411461055e5780639acb773e146105735780639f11080e14610593578063a8aa1b31146105b3578063a9059cbb146105c8578063b2bdfa7b146105e857610267565b80637d1db4a5146104dd578063893d20e8146104f25780638a4068dd146105145780638da5cb5b14610529578063918924761461053e57610267565b806323b872dd116101dd5780636ddd1713116101a15780636ddd17131461043e57806370a0823114610453578063715018a61461047357806377b54bad1461048857806378109e54146104a85780637bae52e1146104bd57610267565b806323b872dd146103a75780632b112e49146103c7578063313ce567146103dc5780635b24ea5e146103fe5780635d0044ca1461041e57610267565b8063095ea7b311610224578063095ea7b31461031d5780631161ae391461033d57806313f97a8e1461035d57806318160ddd1461037d5780631df4ccfc1461039257610267565b806304368f651461026c5780630445b6671461028e5780630621472c146102b957806306fdde03146102e657806308fd3d051461030857610267565b3661026757005b600080fd5b34801561027857600080fd5b5061028c610287366004612154565b61073c565b005b34801561029a57600080fd5b506102a361079c565b6040516102b09190612566565b60405180910390f35b3480156102c557600080fd5b506102d96102d4366004611f1b565b6107a2565b6040516102b09190612301565b3480156102f257600080fd5b506102fb6107b8565b6040516102b0919061230c565b34801561031457600080fd5b506102d96107e1565b34801561032957600080fd5b506102d961033836600461203c565b6107f1565b34801561034957600080fd5b506102d96103583660046121db565b61085c565b34801561036957600080fd5b5061028c610378366004612065565b610870565b34801561038957600080fd5b506102a361091f565b34801561039e57600080fd5b506102a3610925565b3480156103b357600080fd5b506102d96103c2366004611fcb565b61092b565b3480156103d357600080fd5b506102a36109ed565b3480156103e857600080fd5b506103f1610a36565b6040516102b091906125ed565b34801561040a57600080fd5b5061028c610419366004612006565b610a3b565b34801561042a57600080fd5b5061028c6104393660046121ab565b610a9b565b34801561044a57600080fd5b506102d9610b0f565b34801561045f57600080fd5b506102a361046e366004611f1b565b610b1f565b34801561047f57600080fd5b5061028c610b3a565b34801561049457600080fd5b506102d96104a336600461203c565b610bb9565b3480156104b457600080fd5b506102a3610cd9565b3480156104c957600080fd5b5061028c6104d8366004611f67565b610cdf565b3480156104e957600080fd5b506102a3610d73565b3480156104fe57600080fd5b50610507610d79565b6040516102b09190612299565b34801561052057600080fd5b5061028c610d83565b34801561053557600080fd5b50610507610dce565b34801561054a57600080fd5b5061028c610559366004612254565b610ddd565b34801561056a57600080fd5b506102fb610e7e565b34801561057f57600080fd5b5061028c61058e366004612006565b610e9d565b34801561059f57600080fd5b5061028c6105ae3660046121db565b610efd565b3480156105bf57600080fd5b50610507610f3d565b3480156105d457600080fd5b506102d96105e336600461203c565b610f4c565b3480156105f457600080fd5b50610507610f59565b34801561060957600080fd5b5061028c6106183660046121ab565b610f68565b34801561062957600080fd5b5061028c610638366004612006565b610fdc565b34801561064957600080fd5b5061028c6106583660046121fc565b61104f565b34801561066957600080fd5b5061028c611095565b34801561067e57600080fd5b506102a361068d3660046121ab565b6110d4565b34801561069e57600080fd5b5061028c6106ad3660046121ab565b611114565b3480156106be57600080fd5b506102a36106cd366004611f35565b611163565b3480156106de57600080fd5b5061028c6106ed366004611f1b565b61118e565b3480156106fe57600080fd5b5061028c611244565b34801561071357600080fd5b50610507611286565b34801561072857600080fd5b5061028c610737366004612171565b611295565b610744611380565b6000546001600160a01b0390811691161461077a5760405162461bcd60e51b8152600401610771906124ad565b60405180910390fd5b60248054921515600160a81b0260ff60a81b1990931692909217909155602555565b60255481565b60006107b0826000196107f1565b90505b919050565b60408051808201909152600f81526e26bab430b6b6b0b2102930b6bd30b760891b602082015290565b602454600160a01b900460ff1681565b3360008181526009602090815260408083206001600160a01b038716808552925280832085905551919290917f8c5be1e5ebec7d5bd14f71427d1e84f3dd0314c0f7b2291e5b200ac8c7c3b9259061084a908690612566565b60405180910390a35060015b92915050565b600082610868836110d4565b119392505050565b610878611380565b6000546001600160a01b039081169116146108a55760405162461bcd60e51b8152600401610771906124ad565b60005b825181101561091a5781600c60008584815181106108d657634e487b7160e01b600052603260045260246000fd5b6020908102919091018101516001600160a01b03168252810191909152604001600020805460ff19169115159190911790558061091281612669565b9150506108a8565b505050565b60055490565b60125481565b6001600160a01b0383166000908152600960209081526040808320338452909152812054600019146109d8576040805180820182526016815275496e73756666696369656e7420416c6c6f77616e636560501b6020808301919091526001600160a01b03871660009081526009825283812033825290915291909120546109b3918490611384565b6001600160a01b03851660009081526009602090815260408083203384529091529020555b6109e38484846113be565b90505b9392505050565b600454600090610a3190610a09906001600160a01b0316610b1f565b600354610a2b90610a22906001600160a01b0316610b1f565b600554906116fa565b906116fa565b905090565b600990565b610a43611380565b6000546001600160a01b03908116911614610a705760405162461bcd60e51b8152600401610771906124ad565b6001600160a01b03919091166000908152600c60205260409020805460ff1916911515919091179055565b610aa3611380565b6000546001600160a01b03908116911614610ad05760405162461bcd60e51b8152600401610771906124ad565b6103e8600554610ae09190612613565b6007541015610aee57600080fd5b6103e881600554610aff9190612633565b610b099190612613565b60075550565b602454600160a81b900460ff1681565b6001600160a01b031660009081526008602052604090205490565b610b42611380565b6000546001600160a01b03908116911614610b6f5760405162461bcd60e51b8152600401610771906124ad565b600080546040516001600160a01b03909116907f8be0079c531659141344cd1fd0a4f28419497f9722a3daafe3b4186f6b6457e0908390a3600080546001600160a01b0319169055565b336000908152600b602052604081205460ff16610bd557600080fd5b81610c59576040516370a0823160e01b81526001600160a01b038416906370a0823190610c06903090600401612299565b60206040518083038186803b158015610c1e57600080fd5b505afa158015610c32573d6000803e3d6000fd5b505050506040513d601f19601f82011682018060405250810190610c5691906121c3565b91505b60405163a9059cbb60e01b81526001600160a01b0384169063a9059cbb90610c8790339086906004016122ad565b602060405180830381600087803b158015610ca157600080fd5b505af1158015610cb5573d6000803e3d6000fd5b505050506040513d601f19601f820116820180604052508101906109e69190612138565b60075481565b610ce7611380565b6000546001600160a01b03908116911614610d145760405162461bcd60e51b8152600401610771906124ad565b601880546001600160a01b03199081166001600160a01b039788161790915560198054821695871695909517909455601a8054851693861693909317909255601c80548416918516919091179055601b80549092169216919091179055565b60065481565b6000610a31610dce565b336000908152600b602052604090205460ff16610d9f57600080fd5b60405133904780156108fc02916000818181858888f19350505050158015610dcb573d6000803e3d6000fd5b50565b6000546001600160a01b031690565b610de5611380565b6000546001600160a01b03908116911614610e125760405162461bcd60e51b8152600401610771906124ad565b600d8690556010859055600e849055600f8390556011829055610e4382610e3d858188818c8c61173c565b9061173c565b6012556013819055610e56600582612613565b60125410610e765760405162461bcd60e51b815260040161077190612407565b505050505050565b6040805180820190915260058152641215195cdd60da1b602082015290565b610ea5611380565b6000546001600160a01b03908116911614610ed25760405162461bcd60e51b8152600401610771906124ad565b6001600160a01b03919091166000908152600b60205260409020805460ff1916911515919091179055565b610f05611380565b6000546001600160a01b03908116911614610f325760405162461bcd60e51b8152600401610771906124ad565b602091909155602155565b6024546001600160a01b031681565b60006109e63384846113be565b6000546001600160a01b031681565b610f70611380565b6000546001600160a01b03908116911614610f9d5760405162461bcd60e51b8152600401610771906124ad565b6103e8600554610fad9190612613565b6006541015610fbb57600080fd5b6103e881600554610fcc9190612633565b610fd69190612613565b60065550565b610fe4611380565b6000546001600160a01b039081169116146110115760405162461bcd60e51b8152600401610771906124ad565b6001600160a01b039091166000908152600a60209081526040808320805494151560ff199586168117909155600b9092529091208054909216179055565b611057611380565b6000546001600160a01b039081169116146110845760405162461bcd60e51b8152600401610771906124ad565b601591909155601691909155601755565b61109d611380565b6000546001600160a01b039081169116146110ca5760405162461bcd60e51b8152600401610771906124ad565b6110d261176b565b565b60006107b06110e16109ed565b60245461110e9061110790600290611101906001600160a01b0316610b1f565b906112f9565b85906112f9565b9061133e565b601b5447906001600160a01b03166108fc60646111318585612633565b61113b9190612613565b6040518115909202916000818181858888f1935050505015801561091a573d6000803e3d6000fd5b6001600160a01b03918216600090815260096020908152604080832093909416825291909152205490565b611196611380565b6000546001600160a01b039081169116146111c35760405162461bcd60e51b8152600401610771906124ad565b6001600160a01b0381166111e95760405162461bcd60e51b81526004016107719061238a565b600080546040516001600160a01b03808516939216917f8be0079c531659141344cd1fd0a4f28419497f9722a3daafe3b4186f6b6457e091a3600080546001600160a01b0319166001600160a01b0392909216919091179055565b61124c611380565b6000546001600160a01b039081169116146112795760405162461bcd60e51b8152600401610771906124ad565b6005546007819055600655565b6022546001600160a01b031681565b61129d611380565b6000546001600160a01b039081169116146112ca5760405162461bcd60e51b8152600401610771906124ad565b60248054941515600160a01b0260ff60a01b199095169490941790935560169190915560155560175543601455565b60008261130857506000610856565b60006113148385612633565b9050826113218583612613565b146109e65760405162461bcd60e51b81526004016107719061246c565b60006109e683836040518060400160405280601a81526020017f536166654d6174683a206469766973696f6e206279207a65726f000000000000815250611bb5565b3390565b600081848411156113a85760405162461bcd60e51b8152600401610771919061230c565b5060006113b58486612652565b95945050505050565b6001600160a01b0383166000908152600c602052604081205460ff1615801561140057506001600160a01b0383166000908152600c602052604090205460ff16155b61141c5760405162461bcd60e51b81526004016107719061253f565b60265460ff161561143957611432848484611be3565b90506109e6565b6001600160a01b03841660009081526001602052604090205460ff1615801561147b57506001600160a01b03831660009081526001602052604090205460ff16155b156114a957602454600160a01b900460ff166114a95760405162461bcd60e51b81526004016107719061243e565b6001600160a01b03841660009081526001602052604090205460ff161580156114db57506001600160a01b0383163014155b80156114f557506003546001600160a01b03848116911614155b801561150f57506024546001600160a01b03848116911614155b80156115295750601c546001600160a01b03848116911614155b801561154357506019546001600160a01b03848116911614155b801561156857506001600160a01b0383166000908152600b602052604090205460ff16155b156115a857600061157884610b1f565b60075490915061158884836125fb565b11156115a65760405162461bcd60e51b8152600401610771906124e2565b505b6115b28483611cb5565b6115ba611cfe565b156115cc576115c761176b565b436014555b6040805180820182526014815273496e73756666696369656e742042616c616e636560601b6020808301919091526001600160a01b03871660009081526008909152919091205461161e918490611384565b6001600160a01b038516600090815260086020908152604080832093909355600a90529081205460ff168061166b57506001600160a01b0384166000908152600a602052604090205460ff165b61167f5761167a858486611d62565b611681565b825b6001600160a01b0385166000908152600860205260409020549091506116a7908261173c565b6001600160a01b0380861660008181526008602052604090819020939093559151908716906000805160206126bf833981519152906116e7908590612566565b60405180910390a3506001949350505050565b60006109e683836040518060400160405280601e81526020017f536166654d6174683a207375627472616374696f6e206f766572666c6f770000815250611384565b60008061174983856125fb565b9050838110156109e65760405162461bcd60e51b8152600401610771906123d0565b6026805460ff1916600117905560205460215460009161178a9161085c565b61179657600d54611799565b60005b905060006117bd600261110e60125461110e866025546112f990919063ffffffff16565b905060006117d6826025546116fa90919063ffffffff16565b6040805160028082526060820183529293506000929091602083019080368337019050509050308160008151811061181e57634e487b7160e01b600052603260045260246000fd5b6001600160a01b03928316602091820292909201015260025482519116908290600190811061185d57634e487b7160e01b600052603260045260246000fd5b6001600160a01b03928316602091820292909201015260225460405163791ac94760e01b81524792919091169063791ac947906118a790869060009087903090429060040161256f565b600060405180830381600087803b1580156118c157600080fd5b505af11580156118d5573d6000803e3d6000fd5b5050505060006118ee82476116fa90919063ffffffff16565b9050600061190961190088600261133e565b601254906116fa565b9050600061191e600261110e8481878d6112f9565b9050600061193b8361110e600e54876112f990919063ffffffff16565b905060006119588461110e601054886112f990919063ffffffff16565b905060006119758561110e600f54896112f990919063ffffffff16565b6019546040519192506000916001600160a01b0390911690859061199890612296565b60006040518083038185875af1925050503d80600081146119d5576040519150601f19603f3d011682016040523d82523d6000602084013e6119da565b606091505b5050601a546040519192506001600160a01b03169083906119fa90612296565b60006040518083038185875af1925050503d8060008114611a37576040519150601f19603f3d011682016040523d82523d6000602084013e611a3c565b606091505b5050601b546040519192506001600160a01b0316908490611a5c90612296565b60006040518083038185875af1925050503d8060008114611a99576040519150601f19603f3d011682016040523d82523d6000602084013e611a9e565b606091505b5060009250508b159050611b9d57602260009054906101000a90046001600160a01b03166001600160a01b031663f305d71986308e600080601860009054906101000a90046001600160a01b0316426040518863ffffffff1660e01b8152600401611b0e969594939291906122c6565b6060604051808303818588803b158015611b2757600080fd5b505af1158015611b3b573d6000803e3d6000fd5b50505050506040513d601f19601f82011682018060405250810190611b609190612227565b5050507f424db2872186fa7e7afa7a5e902ed3b49a2ef19c2f5431e672462495dd6b4506858c604051611b949291906125df565b60405180910390a15b50506026805460ff1916905550505050505050505050565b60008183611bd65760405162461bcd60e51b8152600401610771919061230c565b5060006113b58486612613565b6040805180820182526014815273496e73756666696369656e742042616c616e636560601b6020808301919091526001600160a01b0386166000908152600890915291822054611c34918490611384565b6001600160a01b038086166000908152600860205260408082209390935590851681522054611c63908361173c565b6001600160a01b0380851660008181526008602052604090819020939093559151908616906000805160206126bf83398151915290611ca3908690612566565b60405180910390a35060019392505050565b60065481111580611cde57506001600160a01b0382166000908152600b602052604090205460ff165b611cfa5760405162461bcd60e51b81526004016107719061235f565b5050565b6024546000906001600160a01b03163314801590611d1f575060265460ff16155b8015611d345750602454600160a81b900460ff165b8015611d5157506025543060009081526008602052604090205410155b8015610a3157505060145443141590565b601754602454600091906001600160a01b0384811691161415611d885750601554611da3565b6024546001600160a01b0386811691161415611da357506016545b6000611dd06013546064611db79190612633565b61110e846111016012548a6112f990919063ffffffff16565b90506000611def60125461110e601154856112f990919063ffffffff16565b90506000611dfd83836116fa565b30600090815260086020526040902054909150611e1a908261173c565b3060009081526008602052604080822092909255601c546001600160a01b031681522054611e48908361173c565b601c546001600160a01b039081166000908152600860205260409081902092909255905130918a16906000805160206126bf83398151915290611e8c908590612566565b60405180910390a38115611ee357600554611ea790836116fa565b6005556004546040516001600160a01b03918216918a16906000805160206126bf83398151915290611eda908690612566565b60405180910390a35b611eed87846116fa565b98975050505050505050565b80356001600160a01b03811681146107b357600080fd5b80356107b3816126b0565b600060208284031215611f2c578081fd5b6109e682611ef9565b60008060408385031215611f47578081fd5b611f5083611ef9565b9150611f5e60208401611ef9565b90509250929050565b600080600080600060a08688031215611f7e578081fd5b611f8786611ef9565b9450611f9560208701611ef9565b9350611fa360408701611ef9565b9250611fb160608701611ef9565b9150611fbf60808701611ef9565b90509295509295909350565b600080600060608486031215611fdf578283fd5b611fe884611ef9565b9250611ff660208501611ef9565b9150604084013590509250925092565b60008060408385031215612018578182fd5b61202183611ef9565b91506020830135612031816126b0565b809150509250929050565b6000806040838503121561204e578182fd5b61205783611ef9565b946020939093013593505050565b60008060408385031215612077578182fd5b823567ffffffffffffffff8082111561208e578384fd5b818501915085601f8301126120a1578384fd5b81356020828211156120b5576120b561269a565b808202604051828282010181811086821117156120d4576120d461269a565b604052838152828101945085830182870184018b10156120f2578889fd5b8896505b8487101561211b5761210781611ef9565b8652600196909601959483019483016120f6565b50965061212b9050878201611f10565b9450505050509250929050565b600060208284031215612149578081fd5b81516109e6816126b0565b60008060408385031215612166578182fd5b8235612057816126b0565b60008060008060808587031215612186578384fd5b8435612191816126b0565b966020860135965060408601359560600135945092505050565b6000602082840312156121bc578081fd5b5035919050565b6000602082840312156121d4578081fd5b5051919050565b600080604083850312156121ed578182fd5b50508035926020909101359150565b600080600060608486031215612210578283fd5b505081359360208301359350604090920135919050565b60008060006060848603121561223b578081fd5b8351925060208401519150604084015190509250925092565b60008060008060008060c0878903121561226c578384fd5b505084359660208601359650604086013595606081013595506080810135945060a0013592509050565b90565b6001600160a01b0391909116815260200190565b6001600160a01b03929092168252602082015260400190565b6001600160a01b039687168152602081019590955260408501939093526060840191909152909216608082015260a081019190915260c00190565b901515815260200190565b6000602080835283518082850152825b818110156123385785810183015185820160400152820161231c565b818111156123495783604083870101525b50601f01601f1916929092016040019392505050565b602080825260119082015270151608131a5b5a5d08115e18d959591959607a1b604082015260600190565b60208082526026908201527f4f776e61626c653a206e6577206f776e657220697320746865207a65726f206160408201526564647265737360d01b606082015260800190565b6020808252601b908201527f536166654d6174683a206164646974696f6e206f766572666c6f770000000000604082015260600190565b6020808252601d908201527f466565732063616e206e6f74206265206d6f7265207468616e20323025000000604082015260600190565b602080825260149082015273151c98591a5b99c81b9bdd081bdc195b881e595d60621b604082015260600190565b60208082526021908201527f536166654d6174683a206d756c7469706c69636174696f6e206f766572666c6f6040820152607760f81b606082015260800190565b6020808252818101527f4f776e61626c653a2063616c6c6572206973206e6f7420746865206f776e6572604082015260600190565b6020808252603e908201527f546f74616c20486f6c64696e672069732063757272656e746c79206c696d697460408201527f65642c20796f752063616e206e6f74206275792074686174206d7563682e0000606082015260800190565b6020808252600d908201526c165bdd48185c99481848189bdd609a1b604082015260600190565b90815260200190565b600060a082018783526020878185015260a0604085015281875180845260c0860191508289019350845b818110156125be5784516001600160a01b031683529383019391830191600101612599565b50506001600160a01b03969096166060850152505050608001529392505050565b918252602082015260400190565b60ff91909116815260200190565b6000821982111561260e5761260e612684565b500190565b60008261262e57634e487b7160e01b81526012600452602481fd5b500490565b600081600019048311821515161561264d5761264d612684565b500290565b60008282101561266457612664612684565b500390565b600060001982141561267d5761267d612684565b5060010190565b634e487b7160e01b600052601160045260246000fd5b634e487b7160e01b600052604160045260246000fd5b8015158114610dcb57600080fdfeddf252ad1be2c89b69c2b068fc378daa952ba7f163c4a11628f55a4df523b3efa2646970667358221220ea4a97674b892fca7e673aefcf67302bc2d1686b87e489adadfe70b89e05cbce64736f6c63430008000033",
  "linkReferences": {},
  "deployedLinkReferences": {}
}